:020000040000FA
:04000000A1EF0AF072
:090300000025640A0025640000D8
:10030A002D6E0B0E2D18D8B48DEF01F08FEF01F082
:10031A0047EF04F00C0E2D18D8B496EF01F098EFC1
:10032A0001F047EF04F01F0E2D18D8B49FEF01F02B
:10033A00A1EF01F047EF04F0200E2D18D8B4A8EF72
:10034A0001F0AAEF01F047EF04F02D50D8B4B0EF56
:10035A0001F0B2EF01F047EF04F0280E2D64B8EF78
:10036A0001F0BAEF01F0BCEF01F047EF04F02850BA
:10037A00D8B4C2EF01F0C4EF01F0E0EF01F02804B5
:10038A00D8B4CAEF01F0CCEF01F0E0EF01F0020EB1
:10039A002818D8B4D3EF01F0D5EF01F0E0EF01F05F
:1003AA00030E2818D8B4DCEF01F0DEEF01F0E0EF1D
:1003BA0001F047EF04F02D5037EC0AF02B6E2B506A
:1003CA00BFEC09F02C6E2B5074EC09F02E6E2850FD
:1003DA00D8A4F2EF01F0F4EF01F071EF02F050EF60
:1003EA0002F0920E046E0F0E056E2EC006F07CEC23
:1003FA000BF0380E046E0F0E056E2EC006F07CEC64
:10040A000BF047EF04F0930E046E0F0E056E2EC02C
:10041A0006F07CEC0BF0390E046E0F0E056E2EC042
:10042A0006F07CEC0BF047EF04F0940E046E0F0E0E
:10043A00056E2EC006F07CEC0BF03A0E046E0F0E21
:10044A00056E2EC006F07CEC0BF047EF04F0950E1B
:10045A00046E0F0E056E2EC006F07CEC0BF03B0E00
:10046A00046E0F0E056E2EC006F07CEC0BF047EF03
:10047A0004F0960E046E0F0E056E2EC006F07CEC8C
:10048A000BF03C0E046E0F0E056E2EC006F07CECCF
:10049A000BF047EF04F02C50296E2A6A2A50000A02
:1004AA00D8B45AEF02F047EF04F02950000AD8B442
:1004BA00F6EF01F0010AD8B408EF02F0030AD8B443
:1004CA001AEF02F0010AD8B42CEF02F0070AD8B4E6
:1004DA003EEF02F047EF04F02804D8A477EF02F0C9
:1004EA0079EF02F01EEF03F0FDEF02F0920E046EB8
:1004FA000F0E056E2EC006F07CEC0BF0890E046E12
:10050A000F0E056E2EC006F064EC0BF0380E046E6A
:10051A000F0E056E2EC006F064EC0BF047EF04F0E8
:10052A00930E046E0F0E056E2EC006F07CEC0BF0D7
:10053A008A0E046E0F0E056E2EC006F064EC0BF0E8
:10054A00390E046E0F0E056E2EC006F064EC0BF029
:10055A0047EF04F0940E046E0F0E056E2EC006F0DF
:10056A007CEC0BF08B0E046E0F0E056E2EC006F09F
:10057A0064EC0BF03A0E046E0F0E056E2EC006F0F8
:10058A0064EC0BF047EF04F0950E046E0F0E056E47
:10059A002EC006F07CEC0BF08C0E046E0F0E056E6E
:1005AA002EC006F064EC0BF03B0E046E0F0E056EC7
:1005BA002EC006F064EC0BF047EF04F0960E046EC2
:1005CA000F0E056E2EC006F07CEC0BF08D0E046E3D
:1005DA000F0E056E2EC006F064EC0BF03C0E046E96
:1005EA000F0E056E2EC006F064EC0BF047EF04F018
:1005FA002C50296E2A6A2A50000AD8B407EF03F051
:10060A0047EF04F02950000AD8B47BEF02F0010A40
:10061A00D8B495EF02F0030AD8B4AFEF02F0010A9A
:10062A00D8B4C9EF02F0070AD8B4E3EF02F047EFF3
:10063A0004F0020E2818D8A425EF03F027EF03F0E0
:10064A0026EF04F0ABEF03F0920E046E0F0E056E68
:10065A002EC006F07CEC0BF0890E046E0F0E056EB0
:10066A002EC006F07CEC0BF0380E046E0F0E056EF1
:10067A002EC006F064EC0BF047EF04F0930E046E04
:10068A000F0E056E2EC006F07CEC0BF08A0E046E7F
:10069A000F0E056E2EC006F07CEC0BF0390E046EC0
:1006AA000F0E056E2EC006F064EC0BF047EF04F057
:1006BA00940E046E0F0E056E2EC006F07CEC0BF045
:1006CA008B0E046E0F0E056E2EC006F07CEC0BF03E
:1006DA003A0E046E0F0E056E2EC006F064EC0BF097
:1006EA0047EF04F0950E046E0F0E056E2EC006F04D
:1006FA007CEC0BF08C0E046E0F0E056E2EC006F00D
:10070A007CEC0BF03B0E046E0F0E056E2EC006F04D
:10071A0064EC0BF047EF04F0960E046E0F0E056EB4
:10072A002EC006F07CEC0BF08D0E046E0F0E056EDB
:10073A002EC006F07CEC0BF03C0E046E0F0E056E1C
:10074A002EC006F064EC0BF047EF04F02C50296E33
:10075A002A6A2A50000AD8B4B5EF03F047EF04F02A
:10076A002950000AD8B429EF03F0010AD8B443EF9C
:10077A0003F0030AD8B45DEF03F0010AD8B477EFA7
:10078A0003F0070AD8B491EF03F047EF04F0920E92
:10079A00046E0F0E056E2EC006F064EC0BF0380ED8
:1007AA00046E0F0E056E2EC006F064EC0BF047EFD8
:1007BA0004F0930E046E0F0E056E2EC006F064EC64
:1007CA000BF0390E046E0F0E056E2EC006F064ECA7
:1007DA000BF047EF04F0940E046E0F0E056E2EC058
:1007EA0006F064EC0BF03A0E046E0F0E056E2EC086
:1007FA0006F064EC0BF047EF04F0950E046E0F0E52
:10080A00056E2EC006F064EC0BF03B0E046E0F0E64
:10081A00056E2EC006F064EC0BF047EF04F0920E62
:10082A00046E0F0E056E2EC006F064EC0BF03C0E43
:10083A00046E0F0E056E2EC006F064EC0BF047EF47
:10084A0004F02C50296E2A6A2A50000AD8B430EFD4
:10085A0004F047EF04F02950000AD8B4CCEF03F0B3
:10086A00010AD8B4DEEF03F0030AD8B4F0EF03F0BC
:10087A00010AD8B402EF04F0070AD8B414EF04F05E
:10088A0047EF04F012001EC036F01FC037F020C038
:10089A0038F021C039F022C03AF023C03BF024C01E
:1008AA003CF025C03DF03DBE5DEF04F060EF04F082
:1008BA00010E61EF04F0000E346E356A34503510C3
:1008CA00D8B46AEF04F06CEF04F07CEF04F03D1E3C
:1008DA003C1E3B1E3A1E391E381E371E366C000E51
:1008EA003722382239223A223B223C223D22000179
:1008FA0065BF82EF04F084EF04F085EF04F066939D
:10090A0065BF92EF04F0655106E16405D8B090EF37
:10091A0004F092EF04F098EF04F0000E316E010E2D
:10092A00306E9CEF04F064C030F065C031F062C0F4
:10093A0032F063C033F034503510D8A4A7EF04F076
:10094A00A9EF04F0B0EF04F066A5AEEF04F0B0EF43
:10095A0004F0B3EF04F03206D8A03306000E3F6E5F
:10096A001F0E3E6E000E876F37EF05F03E06D8A0C9
:10097A003F06680E3E24D96E000E3F20DA6E36C05E
:10098A0001F037C002F038C003F039C004F03AC0B1
:10099A0005F03BC006F03CC007F03DC008F00A0E67
:1009AA00096E000E0A6E000E0B6E000E0C6E000E23
:1009BA000D6E000E0E6E000E0F6E000E106E57ECCE
:1009CA0007F001C026F002C027F003C028F004C0D7
:1009DA0029F005C02AF006C02BF007C02CF008C089
:1009EA002DF026C013F028C014F081EC0AF0135041
:1009FA00300FDF6E3006D8A031063206D8A0330693
:100A0A0036C001F037C002F038C003F039C004F034
:100A1A003AC005F03BC006F03CC007F03DC008F004
:100A2A000A0E096E000E0A6E000E0B6E000E0C6E98
:100A3A00000E0D6E000E0E6E000E0F6E000E106E82
:100A4A0093EC06F001C036F002C037F003C038F06C
:100A5A0004C039F005C03AF006C03BF007C03CF0CC
:100A6A0008C03DF03FBE42EF05F03F5008E13E04AA
:100A7A00D8A042EF05F044EF05F075EF05F03650C7
:100A8A003710381039103A103B103C103D10D8A4DA
:100A9A0051EF05F053EF05F0BBEF04F031BE60EF04
:100AAA0005F0315006E13004D8B05EEF05F060EF92
:100ABA0005F0BBEF04F033BE6BEF05F0335008E1ED
:100ACA003204D8A06BEF05F06DEF05F075EF05F075
:100ADA00000166B373EF05F075EF05F0BBEF04F0A4
:100AEA0034503510D8A47CEF05F07EEF05F086EF80
:100AFA0005F0000166A584EF05F086EF05F0A4EF86
:100B0A0005F03E06D8A03F0634503510D8A490EF21
:100B1A0005F092EF05F098EF05F0000E2F6E2B0E00
:100B2A002E6E9CEF05F0000E2F6E2D0E2E6E680EA7
:100B3A003E24D96E000E3F20DA6E2EC0DFFF1CC0A5
:100B4A0011F01DC012F0680E3E24136E000E3F20F5
:100B5A00146E32C015F033C016F072EC08F011C0F2
:100B6A001CF012C01DF0120042C0D9FF43C0DAFFC8
:100B7A00DECFF6FFDDCFF7FF0800F550250AD8A42F
:100B8A00C9EF05F0CBEF05F077EF06F042C0D9FFC9
:100B9A0043C0DAFFDE2A000EDD22000E0001636F79
:100BAA00000E626F62C066F063C067F064696569CF
:100BBA0042C0D9FF43C0DAFFDECFF6FFDDCFF7FF31
:100BCA000800F550640AD8B4EDEF05F0EFEF05F030
:100BDA0001EF06F042C0D9FF43C0DAFFDECFF6FFCD
:100BEA00DDCFF7FF0800F550690AD8A4FFEF05F03A
:100BFA0001EF06F041EF06F042C0D9FF43C0DAFF29
:100C0A00DE2A000EDD2244C0D9FF45C0DAFFDFCF5D
:100C1A0046F0020EDE26DFCF47F0000EDD2246C088
:100C2A00D9FF47C0DAFFDECF48F0DDCF49F0000E2A
:100C3A0049BEFF0E4A6E4B6E4C6E4D6E4E6E4F6E37
:100C4A0040C01CF041C01DF048C01EF049C01FF052
:100C5A004AC020F04BC021F04CC022F04DC023F016
:100C6A004EC024F04FC025F048EC04F01CC040F000
:100C7A001DC041F092EF06F042C0D9FF43C0DAFF2F
:100C8A00DECFF6FFDDCFF7FF0800F550250AD8A41E
:100C9A0051EF06F053EF06F06AEF06F042C0D9FFB3
:100CAA0043C0DAFFDE2A000EDD22000E026E250E98
:100CBA00016E40C003F041C004F029EC09F0000EB7
:100CCA00416E010E406E92EF06F042C0D9FF43C05A
:100CDA00DAFFDE2A000EDD22000E416E000E406EA3
:100CEA0092EF06F042C0D9FF43C0DAFFDECFF6FF2B
:100CFA00DDCFF7FF0800F550016E026A40C003F02D
:100D0A0041C004F029EC09F042C0D9FF43C0DAFF20
:100D1A00DE2A000EDD2264EF06F01200000E126ECB
:100D2A0010BE9CEF06F09AEF06F0AEEF06F0101E2A
:100D3A000F1E0E1E0D1E0C1E0B1E0A1E096C000E27
:100D4A000A220B220C220D220E220F221022010E41
:100D5A00126E08BEB5EF06F0B3EF06F0C7EF06F065
:100D6A00081E071E061E051E041E031E021E016C17
:100D7A00000E02220322042205220622072208224A
:100D8A00010E121A20EE13F0070EDE6AE806FDE2E3
:100D9A0009500A100B100C100D100E100F10101025
:100DAA00D8B4DAEF06F0DCEF06F02EEF07F0010E0A
:100DBA00116EEAEF06F0D89009360A360B360C3671
:100DCA000D360E360F361036112A10AEEFEF06F03A
:100DDA00F1EF06F0E0EF06F0D89013361436153628
:100DEA0016361736183619361A360950015C0A5063
:100DFA0002580B5003580C5004580D5005580E5009
:100E0A0006580F50075810500858D8A00FEF07F08F
:100E1A0011EF07F022EF07F00950015E0A50025A5B
:100E2A000B50035A0C50045A0D50055A0E50065ACC
:100E3A000F50075A1050085A1380D89010320F32A8
:100E4A000E320D320C320B320A320932112EF1EF08
:100E5A0006F01250D8B434EF07F036EF07F046EF39
:100E6A0007F01A1E191E181E171E161E151E141E0E
:100E7A00136C000E14221522162217221822192288
:100E8A001A2213C001F014C002F015C003F016C0F4
:100E9A0004F017C005F018C006F019C007F01AC010
:100EAA0008F01200000E126E08BE60EF07F05EEF47
:100EBA0007F072EF07F0081E071E061E051E041E25
:100ECA00031E021E016C000E0222032204220522C6
:100EDA00062207220822010E126E10BE79EF07F0D1
:100EEA0077EF07F089EF07F0101E0F1E0E1E0D1E7A
:100EFA000C1E0B1E0A1E096C000E0A220B220C2263
:100F0A000D220E220F22102209500A100B100C106B
:100F1A000D100E100F101010D8B496EF07F098EFBE
:100F2A0007F0E0EF07F0010E116EA6EF07F0D89078
:100F3A0009360A360B360C360D360E360F36103693
:100F4A00112A10AEABEF07F0ADEF07F09CEF07F0F8
:100F5A000950015C0A5002580B5003580C500458AF
:100F6A000D5005580E5006580F5007581050085883
:100F7A00D8A0C2EF07F0C4EF07F0D4EF07F009508A
:100F8A00015E0A50025A0B50035A0C50045A0D5073
:100F9A00055A0E50065A0F50075A1050085AD89040
:100FAA0010320F320E320D320C320B320A32093243
:100FBA00112EADEF07F01250D8B4E6EF07F0E8EFC4
:100FCA0007F0F8EF07F0081E071E061E051E041E8E
:100FDA00031E021E016C000E0222032204220522B5
:100FEA0006220722082201C001F002C002F003C053
:100FFA0003F004C004F005C005F006C006F007C0FF
:10100A0007F008C008F012002A6E2A5037EC0AF0DE
:10101A002C6E2C50BFEC09F02B6E2C5074EC09F09E
:10102A002E6E4FEF08F0800E016E0F0E026E2EC06C
:10103A0003F020EC0BF02D6E70EF08F0810E016EBC
:10104A000F0E026E2EC003F020EC0BF02D6E70EF27
:10105A0008F0820E016E0F0E026E2EC003F020EC15
:10106A000BF02D6E70EF08F0830E016E0F0E026EFC
:10107A002EC003F020EC0BF02D6E70EF08F0840EFA
:10108A00016E0F0E026E2EC003F020EC0BF02D6ED7
:10109A0070EF08F02B50286E296A2950000AD8B43C
:1010AA0059EF08F070EF08F02850000AD8B418EF8A
:1010BA0008F0010AD8B423EF08F0030AD8B42EEFD7
:1010CA0008F0010AD8B439EF08F0070AD8B444EF97
:1010DA0008F070EF08F02D501200000166A178EFB9
:1010EA0008F07AEF08F084EF08F013C00AF014C091
:1010FA000BF011C00CF012C00DF05FEC0AF016BE36
:10110A0089EF08F08BEF08F091EF08F015C01AF09C
:10111A0016C01BF095EF08F0000E1B6E000E1A6E3B
:10112A00000E196E000E186EA7EF08F0000E026E80
:10113A00200E016E11C003F012C004F029EC09F070
:10114A00184A192A1A50185C1950800A176E1B502F
:10115A00800A1758D8A0B4EF08F0B6EF08F09BEF52
:10116A0008F0000166B1BCEF08F0BEEF08F0C8EF66
:10117A0008F013C00AF014C00BF011C00CF012C032
:10118A000DF05FEC0AF013C001F014C002F0BCECE1
:10119A000AF01A500124116E1B500220126E12001E
:1011AA00010E586E030E596E050E55EC0BF05E6E6D
:1011BA005E505A6E5B6A0DEC0BF00E0E5F6E5F0EA0
:1011CA00086E000E096E000E0A6E010E0B6EF2EC2E
:1011DA000AF0010E586E030E596E5FC05AF05B6A30
:1011EA000DEC0BF0050E586E030E596E030E016ED0
:1011FA00080E45EC0BF05E6E5E505A6E5B6A0DECA3
:10120A000BF0030E286E210E85EC01F0010E286EFC
:10121A000F0E85EC01F0050E586E030E596E120E74
:10122A0009EC08F05E6E5E505A6E5B6A0DEC0BF0CC
:10123A002C0E016E010E026E000E036E000E046E7D
:10124A00D7EC0AF000EF00F003500410D8B430EFE6
:10125A0009F032EF09F03BEF09F003500410D8A46B
:10126A0039EF09F03BEF09F040EF09F0015092EC39
:10127A000BF073EF09F020EE04F00350D926045066
:10128A00DA22DE50DE10D8B44DEF09F04FEF09F044
:10129A006AEF09F020EE04F00350D9260450DA224E
:1012AA0010EE02F00350E1260450E222DE50E65C22
:1012BA00E650800A096EDE50800A0958D8B068EFF5
:1012CA0009F06AEF09F073EF09F020EE02F003501B
:1012DA00D9260450DA22DE2A000EDD221200016E1F
:1012EA00080E01607BEF09F07DEF09F080EF09F04D
:1012FA000150BEEF09F0070E016486EF09F088EF8E
:10130A0009F094EF09F0100E01608EEF09F090EFEA
:10131A0009F094EF09F00150F80FBEEF09F00F0E33
:10132A0001649AEF09F09CEF09F0A8EF09F0180E92
:10133A000160A2EF09F0A4EF09F0A8EF09F001504B
:10134A00F00FBEEF09F0170E0164AEEF09F0B0EF2F
:10135A0009F0BCEF09F0200E0160B6EF09F0B8EF12
:10136A0009F0BCEF09F00150E80FBEEF09F0015097
:10137A00E00F1200016E080E0160C6EF09F0C8EF17
:10138A0009F0CBEF09F0000E05EF0AF0070E016431
:10139A00D1EF09F0D3EF09F0DEEF09F0100E01608A
:1013AA00D9EF09F0DBEF09F0DEEF09F0010E05EFE6
:1013BA000AF00F0E0164E4EF09F0E6EF09F0F1EF2D
:1013CA0009F0180E0160ECEF09F0EEEF09F0F1EF09
:1013DA0009F0020E05EF0AF0170E0164F7EF09F0A3
:1013EA00F9EF09F004EF0AF0200E0160FFEF09F0AF
:1013FA0001EF0AF004EF0AF0030E05EF0AF0040EFB
:10140A00120052C056F053C057F0000E0001616F2F
:10141A00000E606F24EF0AF050C040F051C041F056
:10142A00560E426E000E436E54C044F055C045F04D
:10143A00B9EC05F04050000160274150612356C0C5
:10144A00F6FF57C0F7FF0800F5500009D8A430EF9F
:10145A000AF032EF0AF011EF0AF060C050F061C0F2
:10146A0051F01200266E20EE88F010EE02F0230EE4
:10147A00DBCFE3FFE806FCE2000E276E020E27240C
:10148A00D96EDA6A000EDA222650DE18D8A450EF96
:10149A000AF052EF0AF054EF0AF05DEF0AF0272A39
:1014AA00230E27645BEF0AF05DEF0AF043EF0AF0C0
:1014BA0027501200000E106E000E0F6E70EF0AF029
:1014CA000EC001F0026A0CC003F00DC004F029EC52
:1014DA0009F00F4A102A0F500A24D96E10500B2017
:1014EA00DA6EDF500E6E0E50D8A47EEF0AF080EF4F
:1014FA000AF065EF0AF0120014BE8EEF0AF01450DB
:10150A0006E11304D8B08CEF0AF08EEF0AF09CEFD4
:10151A000AF013C015F014C016F0151E161E154A4F
:10152A00162A15C013F016C014F0A0EF0AF013C063
:10153A0013F014C014F01200660EF66E160EF76E53
:10154A00000EF86E00EE88F010EE24F00900F5CFD8
:10155A00EEFFE550E150FAE100EE60F0280EEE6A87
:10156A00E806FDE1000EF86E0001D5EF08F001C0B3
:10157A0003F002C004F0C4EF0AF0014A022A01C0D3
:10158A00D9FF02C0DAFFDF50D8A4CEEF0AF0D0EFBD
:10159A000AF0C2EF0AF00350015C016E04500258CF
:1015AA00026E1200E6EF0AF0060E056E300EE82E05
:1015BA00FED7052EFCD700D00106000E025A035AA8
:1015CA00045A0150021003100410D8A4EFEF0AF0D5
:1015DA00F1EF0AF0D9EF0AF012000B50D8B4F8EF85
:1015EA000AF0FAEF0AF004EF0BF008C004F009C0A1
:1015FA0005F00AC006F087EC0BF00CEF0BF008C000
:10160A0004F009C005F00AC006F070EC0BF01200F5
:10161A005A0E5C6E000E5D6E000E506E000E516E1C
:10162A0058C052F059C053F05C0E546E000E556EFD
:10163A0006EC0AF0120003C004F001C0D9FF02C090
:10164A00DAFFDF50056E042A2DEF0BF0D890053231
:10165A00042E2BEF0BF00550010B120002030405B8
:10166A0006070E0D21222324252627280F101112E2
:10167A001718191A131415161B1C1D1E08090A011E
:10168A00046E01C002F004C003F0022A4FEF0BF00F
:10169A00D8900332022E4DEF0BF00350010B1200CB
:1016AA00036E03C001F0010E026E012A5FEF0BF018
:1016BA00D8900236012E5DEF0BF002501200065050
:1016CA0055EC0BF0FF0A076E04C0D9FF05C0DAFF1C
:1016DA000750DF121200065055EC0BF0FF0A076E96
:1016EA0004C0D9FF05C0DAFF0750DF161200065002
:1016FA0055EC0BF0076E04C0D9FF05C0DAFF07509E
:10170A00DF121200065055EC0BF0076E04C0D9FF29
:0C171A0005C0DAFF0750DF1212001200B9
:020000040020DA
:08000000FFFFFFFFFFFFFFFF00
:020000040030CA
:0E000000FF251F3FFFBF85FF03C003E0034045
:00000001FF
