:020000040000FA
:0400000054EF00F0C9
:100008005182E1CF09F0E2CF0AF0D9CF0BF0DACF75
:100018000CF09DA812EF00F014EF00F031EF00F0A3
:100028009EA819EF00F01BEF00F031EF00F0240E4E
:10003800016E010E026E82EC0CF00009D8B427EFB5
:1000480000F029EF00F030EF00F0240E056E010EED
:10005800066E0CEC0AF0AD6E9E989DAA36EF00F085
:1000680038EF00F04AEF00F09EAA3DEF00F03FEFB6
:1000780000F04AEF00F0AECF0DF0600E016E000EFA
:10008800026E0DC003F04EEC0AF09E9A0CC0DAFF27
:100098000BC0D9FF0AC0E2FF09C0E1FF519211006D
:0400A800BBEF0AF0B0
:090300000025640A0025640000D8
:10030A003A6E0B0E3A18D8B48DEF01F08FEF01F068
:10031A0047EF04F00C0E3A18D8B496EF01F098EFB4
:10032A0001F047EF04F01F0E3A18D8B49FEF01F01E
:10033A00A1EF01F047EF04F0200E3A18D8B4A8EF65
:10034A0001F0AAEF01F047EF04F03A50D8B4B0EF49
:10035A0001F0B2EF01F047EF04F0280E3A64B8EF6B
:10036A0001F0BAEF01F0BCEF01F047EF04F03550AD
:10037A00D8B4C2EF01F0C4EF01F0E0EF01F03504A8
:10038A00D8B4CAEF01F0CCEF01F0E0EF01F0020EB1
:10039A003518D8B4D3EF01F0D5EF01F0E0EF01F052
:1003AA00030E3518D8B4DCEF01F0DEEF01F0E0EF10
:1003BA0001F047EF04F03A501FEC0BF0386E38505A
:1003CA00C5EC09F0396E38507AEC09F03B6E3550BD
:1003DA00D8A4F2EF01F0F4EF01F071EF02F050EF60
:1003EA0002F0920E116E0F0E126E3BC013F06CECFF
:1003FA000CF0380E116E0F0E126E3BC013F06CEC3F
:10040A000CF047EF04F0930E116E0F0E126E3BC004
:10041A0013F06CEC0CF0390E116E0F0E126E3BC01D
:10042A0013F06CEC0CF047EF04F0940E116E0F0E03
:10043A00126E3BC013F06CEC0CF03A0E116E0F0EFC
:10044A00126E3BC013F06CEC0CF047EF04F0950E03
:10045A00116E0F0E126E3BC013F06CEC0CF03B0EDB
:10046A00116E0F0E126E3BC013F06CEC0CF047EFDE
:10047A0004F0960E116E0F0E126E3BC013F06CEC68
:10048A000CF03C0E116E0F0E126E3BC013F06CECAA
:10049A000CF047EF04F03950366E376A3750000ACD
:1004AA00D8B45AEF02F047EF04F03650000AD8B435
:1004BA00F6EF01F0010AD8B408EF02F0030AD8B443
:1004CA001AEF02F0010AD8B42CEF02F0070AD8B4E6
:1004DA003EEF02F047EF04F03504D8A477EF02F0BC
:1004EA0079EF02F01EEF03F0FDEF02F0920E116EAB
:1004FA000F0E126E3BC013F06CEC0CF0890E116EED
:10050A000F0E126E3BC013F054EC0CF0380E116E45
:10051A000F0E126E3BC013F054EC0CF047EF04F0D0
:10052A00930E116E0F0E126E3BC013F06CEC0CF0B2
:10053A008A0E116E0F0E126E3BC013F054EC0CF0C3
:10054A00390E116E0F0E126E3BC013F054EC0CF004
:10055A0047EF04F0940E116E0F0E126E3BC013F0AB
:10056A006CEC0CF08B0E116E0F0E126E3BC013F07A
:10057A0054EC0CF03A0E116E0F0E126E3BC013F0D3
:10058A0054EC0CF047EF04F0950E116E0F0E126E3C
:10059A003BC013F06CEC0CF08C0E116E0F0E126E49
:1005AA003BC013F054EC0CF03B0E116E0F0E126EA2
:1005BA003BC013F054EC0CF047EF04F0960E116EAA
:1005CA000F0E126E3BC013F06CEC0CF08D0E116E18
:1005DA000F0E126E3BC013F054EC0CF03C0E116E71
:1005EA000F0E126E3BC013F054EC0CF047EF04F000
:1005FA003950366E376A3750000AD8B407EF03F01D
:10060A0047EF04F03650000AD8B47BEF02F0010A33
:10061A00D8B495EF02F0030AD8B4AFEF02F0010A9A
:10062A00D8B4C9EF02F0070AD8B4E3EF02F047EFF3
:10063A0004F0020E3518D8A425EF03F027EF03F0D3
:10064A0026EF04F0ABEF03F0920E116E0F0E126E4E
:10065A003BC013F06CEC0CF0890E116E0F0E126E8B
:10066A003BC013F06CEC0CF0380E116E0F0E126ECC
:10067A003BC013F054EC0CF047EF04F0930E116EEC
:10068A000F0E126E3BC013F06CEC0CF08A0E116E5A
:10069A000F0E126E3BC013F06CEC0CF0390E116E9B
:1006AA000F0E126E3BC013F054EC0CF047EF04F03F
:1006BA00940E116E0F0E126E3BC013F06CEC0CF020
:1006CA008B0E116E0F0E126E3BC013F06CEC0CF019
:1006DA003A0E116E0F0E126E3BC013F054EC0CF072
:1006EA0047EF04F0950E116E0F0E126E3BC013F019
:1006FA006CEC0CF08C0E116E0F0E126E3BC013F0E8
:10070A006CEC0CF03B0E116E0F0E126E3BC013F028
:10071A0054EC0CF047EF04F0960E116E0F0E126EA9
:10072A003BC013F06CEC0CF08D0E116E0F0E126EB6
:10073A003BC013F06CEC0CF03C0E116E0F0E126EF7
:10074A003BC013F054EC0CF047EF04F03950366E0E
:10075A00376A3750000AD8B4B5EF03F047EF04F010
:10076A003650000AD8B429EF03F0010AD8B443EF8F
:10077A0003F0030AD8B45DEF03F0010AD8B477EFA7
:10078A0003F0070AD8B491EF03F047EF04F0920E92
:10079A00116E0F0E126E3BC013F054EC0CF0380EB3
:1007AA00116E0F0E126E3BC013F054EC0CF047EFB3
:1007BA0004F0930E116E0F0E126E3BC013F054EC40
:1007CA000CF0390E116E0F0E126E3BC013F054EC82
:1007DA000CF047EF04F0940E116E0F0E126E3BC030
:1007EA0013F054EC0CF03A0E116E0F0E126E3BC061
:1007FA0013F054EC0CF047EF04F0950E116E0F0E47
:10080A00126E3BC013F054EC0CF03B0E116E0F0E3F
:10081A00126E3BC013F054EC0CF047EF04F0920E4A
:10082A00116E0F0E126E3BC013F054EC0CF03C0E1E
:10083A00116E0F0E126E3BC013F054EC0CF047EF22
:10084A0004F03950366E376A3750000AD8B430EFA0
:10085A0004F047EF04F03650000AD8B4CCEF03F0A6
:10086A00010AD8B4DEEF03F0030AD8B4F0EF03F0BC
:10087A00010AD8B402EF04F0070AD8B414EF04F05E
:10088A0047EF04F012002BC0ABF02CC0ACF02DC027
:10089A00ADF02EC0AEF02FC0AFF030C0B0F031C016
:1008AA00B1F032C0B2F00001B2BF5EEF04F061EF06
:1008BA0004F0010E62EF04F0000EA96FAA6BA951B1
:1008CA00AA11D8B46BEF04F06DEF04F07DEF04F0D9
:1008DA00B21FB11FB01FAF1FAE1FAD1FAC1FAB6D54
:1008EA00000EAC23AD23AE23AF23B023B123B22332
:1008FA004EBE82EF04F084EF04F085EF04F04F92CD
:10090A004EBE92EF04F04E5006E14D04D8B090EF7F
:10091A0004F092EF04F098EF04F0000EA66F010EB7
:10092A00A56F9CEF04F04DC0A5F04EC0A6F04BC0D9
:10093A00A7F04CC0A8F0A951AA11D8A4A7EF04F0B7
:10094A00A9EF04F0B0EF04F04FA4AEEF04F0B0EF5B
:10095A0004F0B3EF04F0A707D8A0A807000EB46FFD
:10096A001F0EB36F000EEB6F38EF05F0B307D8A078
:10097A00B407CC0EB325D96E000EB421DA6EABC023
:10098A000EF0ACC00FF0ADC010F0AEC011F0AFC0A9
:10099A0012F0B0C013F0B1C014F0B2C015F00A0ED4
:1009AA00166E000E176E000E186E000E196E000EEF
:1009BA001A6E000E1B6E000E1C6E000E1D6E58EC99
:1009CA0007F00EC033F00FC034F010C035F011C07C
:1009DA0036F012C037F013C038F014C039F015C021
:1009EA003AF033C020F035C021F08BEC0BF02050E8
:1009FA00300FDF6E0001A507D8A0A607A707D8A069
:100A0A00A807ABC00EF0ACC00FF0ADC010F0AEC07E
:100A1A0011F0AFC012F0B0C013F0B1C014F0B2C000
:100A2A0015F00A0E166E000E176E000E186E000EE6
:100A3A00196E000E1A6E000E1B6E000E1C6E000E52
:100A4A001D6E94EC06F00EC0ABF00FC0ACF010C0F7
:100A5A00ADF011C0AEF012C0AFF013C0B0F014C0C8
:100A6A00B1F015C0B2F00001B4BF44EF05F0B451C3
:100A7A0008E1B305D8A044EF05F046EF05F076EF9C
:100A8A0005F0AB51AC11AD11AE11AF11B011B111EE
:100A9A00B211D8A453EF05F055EF05F0BBEF04F0FF
:100AAA00A6BF62EF05F0A65106E1A505D8B060EF32
:100ABA0005F062EF05F0BBEF04F0A8BF6DEF05F09B
:100ACA00A85108E1A705D8A06DEF05F06FEF05F072
:100ADA0076EF05F04FB274EF05F076EF05F0BBEF55
:100AEA0004F0A951AA11D8A47DEF05F07FEF05F013
:100AFA0086EF05F04FA484EF05F086EF05F0A4EF2A
:100B0A0005F0B307D8A0B407A951AA11D8A490EF49
:100B1A0005F092EF05F098EF05F0000EA46F2B0E8A
:100B2A00A36F9CEF05F0000EA46F2D0EA36FCC0EE1
:100B3A00B325D96E000EB421DA6EA3C0DFFF29C037
:100B4A001EF02AC01FF0CC0EB325206E000EB42171
:100B5A00216EA7C022F0A8C023F073EC08F01EC0D3
:100B6A0029F01FC02AF01200B7C0D9FFB8C0DAFFB7
:100B7A00DECFF6FFDDCFF7FF0800F550250AD8A42F
:100B8A00C9EF05F0CBEF05F078EF06F0B7C0D9FF53
:100B9A00B8C0DAFFDE2A000EDD22000E4C6E000E0F
:100BAA004B6E4BC04FF04CC050F04D684E68B7C00A
:100BBA00D9FFB8C0DAFFDECFF6FFDDCFF7FF0800B6
:100BCA00F550640AD8B4ECEF05F0EEEF05F000EF4B
:100BDA0006F0B7C0D9FFB8C0DAFFDECFF6FFDDCF27
:100BEA00F7FF0800F550690AD8A4FEEF05F000EFF8
:100BFA0006F040EF06F0B7C0D9FFB8C0DAFFDE2A28
:100C0A00000EDD22B9C0D9FFBAC0DAFFDFCF3BF050
:100C1A00020EDE26DFCF3CF0000EDD223BC0D9FFFC
:100C2A003CC0DAFFDECF3DF0DDCF3EF0000E3EBE27
:100C3A00FF0E3F6E406E416E426E436E446EB5C00B
:100C4A0029F0B6C02AF03DC02BF03EC02CF03FC0C0
:100C5A002DF040C02EF041C02FF042C030F043C00A
:100C6A0031F044C032F048EC04F029C0B5F02AC093
:100C7A00B6F093EF06F0B7C0D9FFB8C0DAFFDECFFF
:100C8A00F6FFDDCFF7FF0800F550250AD8A450EF8C
:100C9A0006F052EF06F06AEF06F0B7C0D9FFB8C007
:100CAA00DAFFDE2A000EDD22000E0F6E250E0E6E12
:100CBA00B5C010F0B6C011F02FEC09F0000E00011B
:100CCA00B66F010EB56F93EF06F0B7C0D9FFB8C083
:100CDA00DAFFDE2A000EDD22000E0001B66F000EDA
:100CEA00B56F93EF06F0B7C0D9FFB8C0DAFFDECF11
:100CFA00F6FFDDCFF7FF0800F5500E6E0F6AB5C09C
:100D0A0010F0B6C011F02FEC09F0B7C0D9FFB8C087
:100D1A00DAFFDE2A000EDD2263EF06F01200000E73
:100D2A001F6E1DBE9DEF06F09BEF06F0AFEF06F0BB
:100D3A001D1E1C1E1B1E1A1E191E181E171E166C9F
:100D4A00000E1722182219221A221B221C221D22E7
:100D5A00010E1F6E15BEB6EF06F0B4EF06F0C8EF2F
:100D6A0006F0151E141E131E121E111E101E0F1E33
:100D7A000E6C000E0F2210221122122213221422AC
:100D8A001522010E1F1A20EE20F0070EDE6AE80671
:100D9A00FDE216501710181019101A101B101C100B
:100DAA001D10D8B4DBEF06F0DDEF06F02FEF07F0E9
:100DBA00010E1E6EEBEF06F0D8901636173618366F
:100DCA0019361A361B361C361D361E2A1DAEF0EF92
:100DDA0006F0F2EF06F0E1EF06F0D8902036213661
:100DEA0022362336243625362636273616500E5C0A
:100DFA0017500F5818501058195011581A501258A5
:100E0A001B5013581C5014581D501558D8A010EFD9
:100E1A0007F012EF07F023EF07F016500E5E175097
:100E2A000F5A1850105A1950115A1A50125A1B5068
:100E3A00135A1C50145A1D50155A2080D8901D322E
:100E4A001C321B321A3219321832173216321E2E3F
:100E5A00F2EF06F01F50D8B435EF07F037EF07F07E
:100E6A0047EF07F0271E261E251E241E231E221EBC
:100E7A00211E206C000E2122222223222422252236
:100E8A002622272220C00EF021C00FF022C010F027
:100E9A0023C011F024C012F025C013F026C014F0AC
:100EAA0027C015F01200000E1F6E15BE61EF07F085
:100EBA005FEF07F073EF07F0151E141E131E121EC4
:100ECA00111E101E0F1E0E6C000E0F221022112270
:100EDA001222132214221522010E1F6E1DBE7AEF52
:100EEA0007F078EF07F08AEF07F01D1E1C1E1B1E85
:100EFA001A1E191E181E171E166C000E172218220B
:100F0A0019221A221B221C221D22165017101810F1
:100F1A0019101A101B101C101D10D8B497EF07F0E7
:100F2A0099EF07F0E1EF07F0010E1E6EA7EF07F049
:100F3A00D89016361736183619361A361B361C3616
:100F4A001D361E2A1DAEACEF07F0AEEF07F09DEF7F
:100F5A0007F016500E5C17500F58185010581950B9
:100F6A0011581A5012581B5013581C5014581D501F
:100F7A001558D8A0C3EF07F0C5EF07F0D5EF07F073
:100F8A0016500E5E17500F5A1850105A1950115A0F
:100F9A001A50125A1B50135A1C50145A1D50155AE3
:100FAA00D8901D321C321B321A32193218321732BB
:100FBA0016321E2EAEEF07F01F50D8B4E7EF07F037
:100FCA00E9EF07F0F9EF07F0151E141E131E121EA3
:100FDA00111E101E0F1E0E6C000E0F22102211225F
:100FEA0012221322142215220EC00EF00FC00FF087
:100FFA0010C010F011C011F012C012F013C013F09B
:10100A0014C014F015C015F01200376E37501FECDB
:10101A000BF0396E3950C5EC09F0386E39507AEC5C
:10102A0009F03B6E50EF08F0800E0E6E0F0E0F6E39
:10103A003BC010F010EC0CF03A6E71EF08F0810E24
:10104A000E6E0F0E0F6E3BC010F010EC0CF03A6EE5
:10105A0071EF08F0820E0E6E0F0E0F6E3BC010F08D
:10106A0010EC0CF03A6E71EF08F0830E0E6E0F0E54
:10107A000F6E3BC010F010EC0CF03A6E71EF08F0F6
:10108A00840E0E6E0F0E0F6E3BC010F010EC0CF0BB
:10109A003A6E71EF08F03850356E366A3650000AEB
:1010AA00D8B45AEF08F071EF08F03550000AD8B4F6
:1010BA0019EF08F0010AD8B424EF08F0030AD8B4EB
:1010CA002FEF08F0010AD8B43AEF08F0070AD8B4AB
:1010DA0045EF08F071EF08F03A5012004FA078EF90
:1010EA0008F07AEF08F084EF08F020C017F021C06A
:1010FA0018F01EC019F01FC01AF047EC0BF023BEFF
:10110A0089EF08F08BEF08F091EF08F022C027F082
:10111A0023C028F095EF08F0000E286E000E276E07
:10112A00000E266E000E256EA7EF08F0000E0F6E59
:10113A00200E0E6E1EC010F01FC011F02FEC09F029
:10114A00254A262A2750255C2650800A246E2850D4
:10115A00800A2458D8A0B4EF08F0B6EF08F09BEF45
:10116A0008F04FB0BBEF08F0BDEF08F0C7EF08F08A
:10117A0020C017F021C018F01EC019F01FC01AF0C5
:10118A0047EC0BF020C00EF021C00FF0ABEC0BF0D7
:10119A0027500E241E6E28500F201F6E1200010EBB
:1011AA000001C16F030EC26F050E45EC0CF0496ECB
:1011BA0049500001C36FC46BFCEC0BF00E0E4A6E73
:1011CA004A0E156E000E166E000E176E010E186E80
:1011DA00E1EC0BF0010E0001C16F030EC26F4AC0B1
:1011EA00C3F0C46BFCEC0BF0050E0001C16F030EDB
:1011FA00C26F030E0E6E080E35EC0CF0496E4950A4
:10120A000001C36FC46BFCEC0BF0030E356E210EAC
:10121A0085EC01F0010E356E0F0E85EC01F0050E1E
:10122A000001C16F030EC26F120E0AEC08F0496E7C
:10123A0049500001C36FC46BFCEC0BF02C0E0E6E10
:10124A00010E0F6E000E106E000E116EC6EC0BF042
:10125A0054EF00F010501110D8B436EF09F038EFFF
:10126A0009F041EF09F010501110D8A43FEF09F02E
:10127A0041EF09F046EF09F00E508AEC0CF079EFD5
:10128A0009F020EE04F01050D9261150DA22DE506F
:10129A00DE10D8B453EF09F055EF09F070EF09F0FA
:1012AA0020EE04F01050D9261150DA2210EE02F086
:1012BA001050E1261150E222DE50E65CE650800A28
:1012CA00166EDE50800A1658D8B06EEF09F070EF2D
:1012DA0009F079EF09F020EE02F01050D9261150EA
:1012EA00DA22DE2A000EDD2212000E6E080E0E60D1
:1012FA0081EF09F083EF09F086EF09F00E50C4EF91
:10130A0009F0070E0E648CEF09F08EEF09F09AEFE0
:10131A0009F0100E0E6094EF09F096EF09F09AEFBB
:10132A0009F00E50F80FC4EF09F00F0E0E64A0EF8B
:10133A0009F0A2EF09F0AEEF09F0180E0E60A8EF5F
:10134A0009F0AAEF09F0AEEF09F00E50F00FC4EF62
:10135A0009F0170E0E64B4EF09F0B6EF09F0C2EF08
:10136A0009F0200E0E60BCEF09F0BEEF09F0C2EFE3
:10137A0009F00E50E80FC4EF09F00E50E00F12000A
:10138A000E6E080E0E60CCEF09F0CEEF09F0D1EF29
:10139A0009F0000E0BEF0AF0070E0E64D7EF09F002
:1013AA00D9EF09F0E4EF09F0100E0E60DFEF09F053
:1013BA00E1EF09F0E4EF09F0010E0BEF0AF00F0E6E
:1013CA000E64EAEF09F0ECEF09F0F7EF09F0180EF6
:1013DA000E60F2EF09F0F4EF09F0F7EF09F0020EF0
:1013EA000BEF0AF0170E0E64FDEF09F0FFEF09F09C
:1013FA000AEF0AF0200E0E6005EF0AF007EF0AF076
:10140A000AEF0AF0030E0BEF0AF0040E120020EEA8
:10141A0042F00550D9260650DA22DF50D8A418EF38
:10142A000AF01AEF0AF01DEF0AF0FF0E4DEF0AF06C
:10143A0005C001F006C002F023EC0CF0086E20EEA5
:10144A0041F00550D9260650DA22DF50076E0750C0
:10145A000524D96E000E0620DA6EFF0EDF6E20EE2E
:10146A0041F00550D9260650DA2210EE41F0055017
:10147A00E1260650E222E750076E07283F0BDF6E8F
:10148A0020EE42F00550D9260650DA22DF0608502F
:10149A00120020EE42F00150D9260250DA223F0E05
:1014AA00DF645AEF0AF05CEF0AF05EEF0AF086EFAB
:1014BA000AF020EE40F00150D9260250DA22DF501D
:1014CA00046E04500124D96E000E0220DA6E03C0A5
:1014DA00DFFF20EE42F00150D9260250DA22DF2A3D
:1014EA0020EE40F00150D9260250DA2210EE40F0E8
:1014FA000150E1260250E222E750046E04283F0B15
:10150A00DF6E12000203040506070E0D21222324B2
:10151A00252627280F1011121718191A1314151631
:10152A001B1C1D1E08090A01FFFFFFFFFFFFFFFF2B
:10153A00FFFFFFFFFFFFFFFFFFFFFFFFFFFFFFFFB1
:10154A00FFFFFFFFFFFFFFFFFFFFFFFFFFFFFFFFA1
:10155A00FFFFFFFFFFFFFFFFFFFFFFFFFFFFFFFF91
:0B156A00FFFFFFFFFFFFFFFF0000007E
:101576000E0EF66E150EF76E000EF86E01EE00F00A
:1015860010EE67F00900F5CFEEFFE550E150FAE105
:10159600D20EF66E160EF76E000EF86E00EE60F0C6
:1015A60010EE43F00900F5CFEEFFE550E150FAE109
:1015B60000EECAF0220EEE6AE806FDE1506A4F6AB6
:1015C6004E6A4D6A4C6A4B6A51905192000EF86E03
:1015D6000001D4EF08F0BDC045F0BEC046F0000ED5
:1015E6000001CB6F000ECA6F0CEF0BF0BBC0B5F05D
:1015F600BCC0B6F0450EB76F000EB86FBFC0B9F0ED
:10160600C0C0BAF0B9EC05F00001B551CA27B65111
:10161600CB2345C0F6FF46C0F7FF0800F55000098A
:10162600D8A418EF0BF01AEF0BF0F9EF0AF0CAC0C6
:10163600BBF0CBC0BCF01200336E21EE00F010EE12
:101646000FF0230EDBCFE3FFE806FCE2000E346E5C
:101656000F0E3424D96EDA6A000EDA223350DE1801
:10166600D8A438EF0BF03AEF0BF03CEF0BF045EF58
:101676000BF0342A230E346443EF0BF045EF0BF0E6
:101686002BEF0BF034501200000E1D6E000E1C6E78
:1016960058EF0BF01BC00EF00F6A19C010F01AC0FD
:1016A60011F02FEC09F01C4A1D2A1C501724D96E84
:1016B6001D501820DA6EDF501B6E1B50D8A466EF43
:1016C6000BF068EF0BF04DEF0BF01200FFFFFFFF82
:1016D600FFFFFFFFFFFFFFFFFFFFFFFFFFFFFFFF14
:1016E600FFFFFFFFFFFFFFFFFFFFFFFFFFFFFFFF04
:1016F600FFFFFFFFFFFFFFFFFFFFFFFFFFFFFFFFF4
:0F170600FFFFFFFFFFFFFFFFFFFFFFFF000000E0
:1017160021BE98EF0BF0215006E12004D8B096EFD9
:101726000BF098EF0BF0A6EF0BF020C022F021C0D3
:1017360023F0221E231E224A232A22C020F023C081
:1017460021F0AAEF0BF020C020F021C021F01200FA
:101756000EC010F00FC011F0B3EF0BF00E4A0F2AB7
:101766000EC0D9FF0FC0DAFFDF50D8A4BDEF0BF0D3
:10177600BFEF0BF0B1EF0BF010500E5C0E6E115078
:101786000F580F6E1200D5EF0BF0060E126E300ECC
:10179600E82EFED7122EFCD700D00E06000E0F5AEA
:1017A600105A115A0E500F1010101110D8A4DEEF57
:1017B6000BF0E0EF0BF0C8EF0BF012001850D8B4A6
:1017C600E7EF0BF0E9EF0BF0F3EF0BF015C011F0BC
:1017D60016C012F017C013F077EC0CF0FBEF0BF00D
:1017E60015C011F016C012F017C013F060EC0CF023
:1017F6001200C30E476E000E486E000E0001BB6F4E
:10180600000EBC6FC1C0BDF0C2C0BEF0470EBF6FB8
:10181600000EC06FEEEC0AF0120010C011F00EC000
:10182600D9FF0FC0DAFFDF50126E112A1DEF0CF040
:10183600D8901232112E1BEF0CF01250010B120031
:1018460020EE41F00150D9260250DA22DF50036E15
:1018560003500124D96E000E0220DA6EDF50046EAA
:1018660004501200116E0EC00FF011C010F00F2AB6
:101876003FEF0CF0D89010320F2E3DEF0CF01050C9
:10188600010B1200106E10C00EF0010E0F6E0E2A24
:101896004FEF0CF0D8900F360E2E4DEF0CF00F5088
:1018A6001200135045EC0CF0FF0A146E11C0D9FF5C
:1018B60012C0DAFF1450DF121200135045EC0CF080
:1018C600FF0A146E11C0D9FF12C0DAFF1450DF16DA
:1018D6001200135045EC0CF0146E11C0D9FF12C063
:1018E600DAFF1450DF121200135045EC0CF0146EA0
:1018F60011C0D9FF12C0DAFF1450DF12120020EE19
:1019060042F00150D9260250DA22DF5012001200AE
:020000040020DA
:08000000FFFFFFFFFFFFFFFF00
:020000040030CA
:0E000000FF251F3FFFBF85FF03C003E0034045
:00000001FF
