:020000040000FA
:0400000075EF08F0A0
:090300000025640A0025640000D8
:10030A001EC036F01FC037F020C038F021C039F0C7
:10031A0022C03AF023C03BF024C03CF025C03DF097
:10032A003DBE9AEF01F09DEF01F0010E9EEF01F044
:10033A00000E346E356A34503510D8B4A7EF01F088
:10034A00A9EF01F0B9EF01F03D1E3C1E3B1E3A1E1B
:10035A00391E381E371E366C000E372238223922D3
:10036A003A223B223C223D22000165BFBFEF01F049
:10037A00C1EF01F0C2EF01F0669365BFCFEF01F064
:10038A00655106E16405D8B0CDEF01F0CFEF01F079
:10039A00D5EF01F0000E316E010E306ED9EF01F08B
:1003AA0064C030F065C031F062C032F063C033F02F
:1003BA0034503510D8A4E4EF01F0E6EF01F0EDEF88
:1003CA0001F066A5EBEF01F0EDEF01F0F0EF01F0BF
:1003DA003206D8A03306000E3F6E1F0E3E6E000E88
:1003EA00896F74EF02F03E06D8A03F066A0E3E24DB
:1003FA00D96E000E3F20DA6E36C001F037C002F027
:10040A0038C003F039C004F03AC005F03BC006F02A
:10041A003CC007F03DC008F00A0E096E000E0A6ED5
:10042A00000E0B6E000E0C6E000E0D6E000E0E6EA0
:10043A00000E0F6E000E106EE1EC05F001C026F002
:10044A0002C027F003C028F004C029F005C02AF032
:10045A0006C02BF007C02CF008C02DF026C013F000
:10046A0028C014F055EC08F01350300FDF6E300638
:10047A00D8A031063206D8A0330636C001F037C0FC
:10048A0002F038C003F039C004F03AC005F03BC0AE
:10049A0006F03CC007F03DC008F00A0E096E000ED7
:1004AA000A6E000E0B6E000E0C6E000E0D6E000E24
:1004BA000E6E000E0F6E000E106E1DEC05F001C0E0
:1004CA0036F002C037F003C038F004C039F005C076
:1004DA003AF006C03BF007C03CF008C03DF03FBE12
:1004EA007FEF02F03F5008E13E04D8A07FEF02F010
:1004FA0081EF02F0B2EF02F036503710381039109F
:10050A003A103B103C103D10D8A48EEF02F090EF49
:10051A0002F0F8EF01F031BE9DEF02F0315006E132
:10052A003004D8B09BEF02F09DEF02F0F8EF01F033
:10053A0033BEA8EF02F0335008E13204D8A0A8EF86
:10054A0002F0AAEF02F0B2EF02F0000166B3B0EFD8
:10055A0002F0B2EF02F0F8EF01F034503510D8A4EF
:10056A00B9EF02F0BBEF02F0C3EF02F0000166A59B
:10057A00C1EF02F0C3EF02F0E1EF02F03E06D8A0AD
:10058A003F0634503510D8A4CDEF02F0CFEF02F079
:10059A00D5EF02F0000E2F6E2B0E2E6ED9EF02F061
:1005AA00000E2F6E2D0E2E6E6A0E3E24D96E000E90
:1005BA003F20DA6E2EC0DFFF1CC011F01DC012F002
:1005CA006A0E3E24136E000E3F20146E32C015F0E0
:1005DA0033C016F017EC07F011C01CF012C01DF062
:1005EA0012002B6E0B0E2B18D8B4FEEF02F000EFA0
:1005FA0003F042EF04F00C0E2B18D8B407EF03F007
:10060A0009EF03F042EF04F01F0E2B18D8B410EFD5
:10061A0003F012EF03F042EF04F0200E2B18D8B4C7
:10062A0019EF03F01BEF03F042EF04F02B50D8B49C
:10063A0021EF03F023EF03F042EF04F0280E2B64BE
:10064A0029EF03F02BEF03F02DEF03F042EF04F054
:10065A002850D8B433EF03F035EF03F048EF03F036
:10066A002804D8B43BEF03F03DEF03F048EF03F062
:10067A00020E2818D8B444EF03F046EF03F048EF0F
:10068A0003F042EF04F02B5093EC06F02850D8A464
:10069A0051EF03F053EF03F0A4EF03F082EF03F0FE
:1006AA006851FBEC08F0926E010E0F01386F42EFB1
:1006BA0004F06851FBEC08F0936E010E0F01396FDC
:1006CA0042EF04F06851FBEC08F0946E010E0F0142
:1006DA003A6F42EF04F06851FBEC08F0956E010E98
:1006EA000F013B6F42EF04F06851FBEC08F0966E85
:1006FA00010E0F013C6F42EF04F000016951296EAF
:10070A002A6A2A50000AD8B48DEF03F042EF04F0A7
:10071A002950000AD8B455EF03F0010AD8B45EEFA5
:10072A0003F0030AD8B467EF03F0010AD8B470EFF4
:10073A0003F0070AD8B479EF03F042EF04F0280473
:10074A00D8A4AAEF03F0ACEF03F020EF04F0DBEF3C
:10075A0003F06851FBEC08F0926E000E0F01386F3F
:10076A0042EF04F06851FBEC08F0936E000E0F01A3
:10077A00396F42EF04F06851FBEC08F0946E000EFA
:10078A000F013A6F42EF04F06851FBEC08F0956EE6
:10079A00000E0F013B6F42EF04F06851FBEC08F0CA
:1007AA00966E000E0F013C6F42EF04F00001695192
:1007BA00296E2A6A2A50000AD8B4E6EF03F042EFFB
:1007CA0004F02950000AD8B4AEEF03F0010AD8B4F5
:1007DA00B7EF03F0030AD8B4C0EF03F0010AD8B4A4
:1007EA00C9EF03F0070AD8B4D2EF03F042EF04F0DE
:1007FA006851FBEC08F0FF0A926EB2EF03F0685101
:10080A00FBEC08F0FF0A936EBBEF03F06851FBECB8
:10081A0008F0FF0A946EC4EF03F06851FBEC08F08D
:10082A00FF0A956ECDEF03F06851FBEC08F0FF0A62
:10083A00966ED6EF03F000016951296E2A6A2A5092
:10084A00000AD8B42BEF04F042EF04F02950000A52
:10085A00D8B4FDEF03F0010AD8B404EF04F0030A98
:10086A00D8B40BEF04F0010AD8B412EF04F0070A67
:10087A00D8B419EF04F042EF04F0120042C0D9FFD5
:10088A0043C0DAFFDECFF6FFDDCFF7FF0800F550F1
:10089A00250AD8A453EF04F055EF04F001EF05F050
:1008AA0042C0D9FF43C0DAFFDE2A000EDD22000E65
:1008BA000001636F000E626F62C066F063C067F08A
:1008CA006469656942C0D9FF43C0DAFFDECFF6FF2B
:1008DA00DDCFF7FF0800F550640AD8B477EF04F0CB
:1008EA0079EF04F08BEF04F042C0D9FF43C0DAFF7E
:1008FA00DECFF6FFDDCFF7FF0800F550690AD8A46E
:10090A0089EF04F08BEF04F0CBEF04F042C0D9FF7B
:10091A0043C0DAFFDE2A000EDD2244C0D9FF45C0FB
:10092A00DAFFDFCF46F0020EDE26DFCF47F0000EF9
:10093A00DD2246C0D9FF47C0DAFFDECF48F0DDCF5F
:10094A0049F0000E49BEFF0E4A6E4B6E4C6E4D6E5C
:10095A004E6E4F6E40C01CF041C01DF048C01EF0E4
:10096A0049C01FF04AC020F04BC021F04CC022F011
:10097A004DC023F04EC024F04FC025F085EC01F0A5
:10098A001CC040F01DC041F01CEF05F042C0D9FF69
:10099A0043C0DAFFDECFF6FFDDCFF7FF0800F550E0
:1009AA00250AD8A4DBEF04F0DDEF04F0F4EF04F03D
:1009BA0042C0D9FF43C0DAFFDE2A000EDD22000E54
:1009CA00026E250E016E40C003F041C004F07AECBD
:1009DA0007F0000E416E010E406E1CEF05F042C09A
:1009EA00D9FF43C0DAFFDE2A000EDD22000E416E77
:1009FA00000E406E1CEF05F042C0D9FF43C0DAFF7B
:100A0A00DECFF6FFDDCFF7FF0800F550016E026A70
:100A1A0040C003F041C004F07AEC07F042C0D9FFAD
:100A2A0043C0DAFFDE2A000EDD22EEEF04F01200E8
:100A3A00000E126E10BE26EF05F024EF05F038EF17
:100A4A0005F0101E0F1E0E1E0D1E0C1E0B1E0A1E7A
:100A5A00096C000E0A220B220C220D220E220F22F2
:100A6A001022010E126E08BE3FEF05F03DEF05F0B1
:100A7A0051EF05F0081E071E061E051E041E031E62
:100A8A00021E016C000E0222032204220522062203
:100A9A0007220822010E121A20EE13F0070EDE6A50
:100AAA00E806FDE209500A100B100C100D100E108A
:100ABA000F101010D8B464EF05F066EF05F0B8EF28
:100ACA0005F0010E116E74EF05F0D89009360A365A
:100ADA000B360C360D360E360F361036112A10AE7E
:100AEA0079EF05F07BEF05F06AEF05F0D890133641
:100AFA001436153616361736183619361A36095078
:100B0A00015C0A5002580B5003580C5004580D50FF
:100B1A0005580E5006580F50075810500858D8A0BC
:100B2A0099EF05F09BEF05F0ACEF05F00950015E77
:100B3A000A50025A0B50035A0C50045A0D50055AC7
:100B4A000E50065A0F50075A1050085A1380D89060
:100B5A0010320F320E320D320C320B320A32093297
:100B6A00112E7BEF05F01250D8B4BEEF05F0C0EF9E
:100B7A0005F0D0EF05F01A1E191E181E171E161EB4
:100B8A00151E141E136C000E14221522162217228B
:100B9A00182219221A2213C001F014C002F015C03B
:100BAA0003F016C004F017C005F018C006F019C00B
:100BBA0007F01AC008F01200000E126E08BEEAEF23
:100BCA0005F0E8EF05F0FCEF05F0081E071E061E0B
:100BDA00051E041E031E021E016C000E02220322C1
:100BEA0004220522062207220822010E126E10BED6
:100BFA0003EF06F001EF06F013EF06F0101E0F1ECA
:100C0A000E1E0D1E0C1E0B1E0A1E096C000E0A2259
:100C1A000B220C220D220E220F22102209500A103A
:100C2A000B100C100D100E100F101010D8B420EF6E
:100C3A0006F022EF06F06AEF06F0010E116E30EFB1
:100C4A0006F0D89009360A360B360C360D360E36B3
:100C5A000F361036112A10AE35EF06F037EF06F0D0
:100C6A0026EF06F00950015C0A5002580B5003584F
:100C7A000C5004580D5005580E5006580F5007587E
:100C8A0010500858D8A04CEF06F04EEF06F05EEF71
:100C9A0006F00950015E0A50025A0B50035A0C50D2
:100CAA00045A0D50055A0E50065A0F50075A105042
:100CBA00085AD89010320F320E320D320C320B32E3
:100CCA000A320932112E37EF06F01250D8B470EFFB
:100CDA0006F072EF06F082EF06F0081E071E061EE7
:100CEA00051E041E031E021E016C000E02220322B0
:100CFA000422052206220722082201C001F002C0AE
:100D0A0002F003C003F004C004F005C005F006C0F9
:100D1A0006F007C007F008C008F01200266E20EEA1
:100D2A008AF010EE02F0230EDBCFE3FFE806FCE2C6
:100D3A00000E276E020E2724D96EDA6A000EDA2216
:100D4A002650DE18D8A4ACEF06F0AEEF06F00DEF91
:100D5A0007F0080E2760B4EF06F0B6EF06F0BDEF15
:100D6A0006F0000E0001696F27C068F016EF07F061
:100D7A00070E2764C3EF06F0C5EF06F0D5EF06F0BD
:100D8A00100E2760CBEF06F0CDEF06F0D5EF06F098
:100D9A00010E0001696F2750F80F686F16EF07F010
:100DAA000F0E2764DBEF06F0DDEF06F0EDEF06F03D
:100DBA00180E2760E3EF06F0E5EF06F0EDEF06F018
:100DCA00020E0001696F2750F00F686F16EF07F0E7
:100DDA00170E2764F3EF06F0F5EF06F005EF07F0BC
:100DEA00200E2760FBEF06F0FDEF06F005EF07F097
:100DFA00030E0001696F2750E80F686F16EF07F0BE
:100E0A00040E0001696F2750E00F686F16EF07F0B4
:100E1A00272A230E276414EF07F016EF07F09FEF37
:100E2A0006F01200000166A11DEF07F01FEF07F0A0
:100E3A0029EF07F013C00AF014C00BF011C00CF030
:100E4A0012C00DF033EC08F016BE2EEF07F030EFAB
:100E5A0007F036EF07F015C01AF016C01BF03AEF8C
:100E6A0007F0000E1B6E000E1A6E000E196E000EB1
:100E7A00186E4CEF07F0000E026E200E016E11C0C4
:100E8A0003F012C004F07AEC07F0184A192A1A5033
:100E9A00185C1950800A176E1B50800A1758D8A080
:100EAA0059EF07F05BEF07F040EF07F0000166B17A
:100EBA0061EF07F063EF07F06DEF07F013C00AF078
:100ECA0014C00BF011C00CF012C00DF033EC08F096
:100EDA0013C001F014C002F090EC08F01A5001247B
:100EEA00116E1B500220126E120003500410D8B467
:100EFA0081EF07F083EF07F08CEF07F0035004103F
:100F0A00D8A48AEF07F08CEF07F091EF07F00150B1
:100F1A0021EC09F0C4EF07F020EE04F00350D926C3
:100F2A000450DA22DE50DE10D8B49EEF07F0A0EFAC
:100F3A0007F0BBEF07F020EE04F00350D926045067
:100F4A00DA2210EE02F00350E1260450E222DE50CB
:100F5A00E65CE650800A096EDE50800A0958D8B06D
:100F6A00B9EF07F0BBEF07F0C4EF07F020EE02F08D
:100F7A000350D9260450DA22DE2A000EDD2212009E
:100F8A00010E586E030E596E050EFBEC08F05E6EEC
:100F9A005E505A6E5B6AC6EC08F00E0E5F6E5F0E0C
:100FAA00086E000E096E000E0A6E010E0B6EABEC97
:100FBA0008F0010E586E030E596E5FC05AF05B6A54
:100FCA00C6EC08F0050E586E030E596E030E016E3C
:100FDA00080EEBEC08F05E6E5E505A6E5B6AC6EC69
:100FEA0008F0020E286E210EF6EC02F0010E286EB1
:100FFA000F0EF6EC02F000EF00F052C056F053C0AC
:10100A0057F0000E0001616F000E606F20EF08F0CC
:10101A0050C040F051C041F0560E426E000E436E71
:10102A0054C044F055C045F043EC04F04050000170
:10103A0060274150612356C0F6FF57C0F7FF0800EA
:10104A00F5500009D8A42CEF08F02EEF08F00DEFA8
:10105A0008F060C050F061C051F01200000E106E2E
:10106A00000E0F6E44EF08F00EC001F0026A0CC0C9
:10107A0003F00DC004F07AEC07F00F4A102A0F5063
:10108A000A24D96E10500B20DA6EDF500E6E0E5005
:10109A00D8A452EF08F054EF08F039EF08F0120024
:1010AA0014BE62EF08F0145006E11304D8B060EFE2
:1010BA0008F062EF08F070EF08F013C015F014C0E2
:1010CA0016F0151E161E154A162A15C013F016C05C
:1010DA0014F074EF08F013C013F014C014F01200E7
:1010EA00B20EF66E110EF76E000EF86E00EE8AF072
:1010FA0010EE24F00900F5CFEEFFE550E150FAE1D9
:10110A0000EE60F02A0EEE6AE806FDE1000EF86EC7
:10111A000001C5EF07F001C003F002C004F098EF28
:10112A0008F0014A022A01C0D9FF02C0DAFFDF50E3
:10113A00D8A4A2EF08F0A4EF08F096EF08F0035045
:10114A00015C016E04500258026E12000B50D8B4B2
:10115A00B1EF08F0B3EF08F0BDEF08F008C004F0F3
:10116A0009C005F00AC006F016EC09F0C5EF08F050
:10117A0008C004F009C005F00AC006F00AEC09F03C
:10118A0012005A0E5C6E000E5D6E000E506E000E5E
:10119A00516E58C052F059C053F05C0E546E000E96
:1011AA00556E02EC08F012000203040506070E0D44
:1011BA0021222324252627280F1011121718191A5D
:1011CA00131415161B1C1D1E08090A01046E01C002
:1011DA0002F004C003F0022AF5EF08F0D8900332B7
:1011EA00022EF3EF08F00350010B1200036E03C046
:1011FA0001F0010E026E012A05EF09F0D8900236BD
:10120A00012E03EF09F0025012000650FBEC08F021
:10121A00FF0A076E04C0D9FF05C0DAFF0750DF16C0
:10122A0012000650FBEC08F0076E04C0D9FF05C097
:0A123A00DAFF0750DF121200120065
:020000040020DA
:08000000FFFFFFFFFFFFFFFF00
:020000040030CA
:0E000000FF251F3FFFBF85FF03C003E0034045
:00000001FF
