:020000040000FA
:0400000002EF07F014
:090300000025640A0025640000D8
:10030A001EC036F01FC037F020C038F021C039F0C7
:10031A0022C03AF023C03BF024C03CF025C03DF097
:10032A003DBE9AEF01F09DEF01F0010E9EEF01F044
:10033A00000E346E356A34503510D8B4A7EF01F088
:10034A00A9EF01F0B9EF01F03D1E3C1E3B1E3A1E1B
:10035A00391E381E371E366C000E372238223922D3
:10036A003A223B223C223D22000165BFBFEF01F049
:10037A00C1EF01F0C2EF01F0669365BFCFEF01F064
:10038A00655106E16405D8B0CDEF01F0CFEF01F079
:10039A00D5EF01F0000E316E010E306ED9EF01F08B
:1003AA0064C030F065C031F062C032F063C033F02F
:1003BA0034503510D8A4E4EF01F0E6EF01F0EDEF88
:1003CA0001F066A5EBEF01F0EDEF01F0F0EF01F0BF
:1003DA003206D8A03306000E3F6E1F0E3E6E000E88
:1003EA00876F74EF02F03E06D8A03F06680E3E24DF
:1003FA00D96E000E3F20DA6E36C001F037C002F027
:10040A0038C003F039C004F03AC005F03BC006F02A
:10041A003CC007F03DC008F00A0E096E000E0A6ED5
:10042A00000E0B6E000E0C6E000E0D6E000E0E6EA0
:10043A00000E0F6E000E106E94EC04F001C026F050
:10044A0002C027F003C028F004C029F005C02AF032
:10045A0006C02BF007C02CF008C02DF026C013F000
:10046A0028C014F07AEC06F01350300FDF6E300615
:10047A00D8A031063206D8A0330636C001F037C0FC
:10048A0002F038C003F039C004F03AC005F03BC0AE
:10049A0006F03CC007F03DC008F00A0E096E000ED7
:1004AA000A6E000E0B6E000E0C6E000E0D6E000E24
:1004BA000E6E000E0F6E000E106ED0EC03F001C02F
:1004CA0036F002C037F003C038F004C039F005C076
:1004DA003AF006C03BF007C03CF008C03DF03FBE12
:1004EA007FEF02F03F5008E13E04D8A07FEF02F010
:1004FA0081EF02F0B2EF02F036503710381039109F
:10050A003A103B103C103D10D8A48EEF02F090EF49
:10051A0002F0F8EF01F031BE9DEF02F0315006E132
:10052A003004D8B09BEF02F09DEF02F0F8EF01F033
:10053A0033BEA8EF02F0335008E13204D8A0A8EF86
:10054A0002F0AAEF02F0B2EF02F0000166B3B0EFD8
:10055A0002F0B2EF02F0F8EF01F034503510D8A4EF
:10056A00B9EF02F0BBEF02F0C3EF02F0000166A59B
:10057A00C1EF02F0C3EF02F0E1EF02F03E06D8A0AD
:10058A003F0634503510D8A4CDEF02F0CFEF02F079
:10059A00D5EF02F0000E2F6E2B0E2E6ED9EF02F061
:1005AA00000E2F6E2D0E2E6E680E3E24D96E000E92
:1005BA003F20DA6E2EC0DFFF1CC011F01DC012F002
:1005CA00680E3E24136E000E3F20146E32C015F0E2
:1005DA0033C016F046EC05F011C01CF012C01DF035
:1005EA00120042C0D9FF43C0DAFFDECFF6FFDDCFEB
:1005FA00F7FF0800F550250AD8A406EF03F008EF24
:10060A0003F0B4EF03F042C0D9FF43C0DAFFDE2A99
:10061A00000EDD22000E0001636F000E626F62C0E1
:10062A0066F063C067F06469656942C0D9FF43C078
:10063A00DAFFDECFF6FFDDCFF7FF0800F550640AD8
:10064A00D8B42AEF03F02CEF03F03EEF03F042C0D8
:10065A00D9FF43C0DAFFDECFF6FFDDCFF7FF080090
:10066A00F550690AD8A43CEF03F03EEF03F07EEFA1
:10067A0003F042C0D9FF43C0DAFFDE2A000EDD22B2
:10068A0044C0D9FF45C0DAFFDFCF46F0020EDE26AE
:10069A00DFCF47F0000EDD2246C0D9FF47C0DAFFA0
:1006AA00DECF48F0DDCF49F0000E49BEFF0E4A6E9C
:1006BA004B6E4C6E4D6E4E6E4F6E40C01CF041C07C
:1006CA001DF048C01EF049C01FF04AC020F04BC0C0
:1006DA0021F04CC022F04DC023F04EC024F04FC090
:1006EA0025F085EC01F01CC040F01DC041F0CFEFB1
:1006FA0003F042C0D9FF43C0DAFFDECFF6FFDDCFF9
:10070A00F7FF0800F550250AD8A48EEF03F090EF02
:10071A0003F0A7EF03F042C0D9FF43C0DAFFDE2A95
:10072A00000EDD22000E026E250E016E40C003F09F
:10073A0041C004F0A9EC05F0000E416E010E406EB6
:10074A00CFEF03F042C0D9FF43C0DAFFDE2A000E22
:10075A00DD22000E416E000E406ECFEF03F042C064
:10076A00D9FF43C0DAFFDECFF6FFDDCFF7FF08007F
:10077A00F550016E026A40C003F041C004F0A9ECD2
:10078A0005F042C0D9FF43C0DAFFDE2A000EDD229F
:10079A00A1EF03F01200000E126E10BED9EF03F0A3
:1007AA00D7EF03F0EBEF03F0101E0F1E0E1E0D1E07
:1007BA000C1E0B1E0A1E096C000E0A220B220C22AA
:1007CA000D220E220F221022010E126E08BEF2EF27
:1007DA0003F0F0EF03F004EF04F0081E071E061EF4
:1007EA00051E041E031E021E016C000E02220322B5
:1007FA0004220522062207220822010E121A20EEDE
:10080A0013F0070EDE6AE806FDE209500A100B1023
:10081A000C100D100E100F101010D8B417EF04F0B2
:10082A0019EF04F06BEF04F0010E116E27EF04F0DC
:10083A00D89009360A360B360C360D360E360F3678
:10084A001036112A10AE2CEF04F02EEF04F01DEF33
:10085A0004F0D8901336143615361636173618366D
:10086A0019361A360950015C0A5002580B500358BF
:10087A000C5004580D5005580E5006580F50075882
:10088A0010500858D8A04CEF04F04EEF04F05FEF78
:10089A0004F00950015E0A50025A0B50035A0C50D8
:1008AA00045A0D50055A0E50065A0F50075A105046
:1008BA00085A1380D89010320F320E320D320C3291
:1008CA000B320A320932112E2EEF04F01250D8B42C
:1008DA0071EF04F073EF04F083EF04F01A1E191E8F
:1008EA00181E171E161E151E141E136C000E142237
:1008FA00152216221722182219221A2213C001F0D1
:10090A0014C002F015C003F016C004F017C005F0B9
:10091A0018C006F019C007F01AC008F01200000E3D
:10092A00126E08BE9DEF04F09BEF04F0AFEF04F0E7
:10093A00081E071E061E051E041E031E021E016C4B
:10094A00000E02220322042205220622072208227E
:10095A00010E126E10BEB6EF04F0B4EF04F0C6EF4B
:10096A0004F0101E0F1E0E1E0D1E0C1E0B1E0A1E5C
:10097A00096C000E0A220B220C220D220E220F22D3
:10098A00102209500A100B100C100D100E100F1027
:10099A001010D8B4D3EF04F0D5EF04F01DEF05F032
:1009AA00010E116EE3EF04F0D89009360A360B36C1
:1009BA000C360D360E360F361036112A10AEE8EF09
:1009CA0004F0EAEF04F0D9EF04F00950015C0A5090
:1009DA0002580B5003580C5004580D5005580E502D
:1009EA0006580F50075810500858D8A0FFEF04F0C7
:1009FA0001EF05F011EF05F00950015E0A50025AA5
:100A0A000B50035A0C50045A0D50055A0E50065AF0
:100A1A000F50075A1050085AD89010320F320E321F
:100A2A000D320C320B320A320932112EEAEF04F07F
:100A3A001250D8B423EF05F025EF05F035EF05F095
:100A4A00081E071E061E051E041E031E021E016C3A
:100A5A00000E02220322042205220622072208226D
:100A6A0001C001F002C002F003C003F004C004F0A8
:100A7A0005C005F006C006F007C007F008C008F078
:100A8A001200000166A14CEF05F04EEF05F058EF99
:100A9A0005F013C00AF014C00BF011C00CF012C01C
:100AAA000DF058EC06F016BE5DEF05F05FEF05F0AD
:100ABA0065EF05F015C01AF016C01BF069EF05F0D6
:100ACA00000E1B6E000E1A6E000E196E000E186EC6
:100ADA007BEF05F0000E026E200E016E11C003F0CE
:100AEA0012C004F0A9EC05F0184A192A1A50185C29
:100AFA001950800A176E1B50800A1758D8A088EF21
:100B0A0005F08AEF05F06FEF05F0000166B190EF8E
:100B1A0005F092EF05F09CEF05F013C00AF014C03F
:100B2A000BF011C00CF012C00DF058EC06F013C017
:100B3A0001F014C002F09AEC06F01A500124116E6A
:100B4A001B500220126E120003500410D8B4B0EFEA
:100B5A0005F0B2EF05F0BBEF05F003500410D8A47E
:100B6A00B9EF05F0BBEF05F0C0EF05F0015026EC38
:100B7A0007F0F3EF05F020EE04F00350D9260450F5
:100B8A00DA22DE50DE10D8B4CDEF05F0CFEF05F053
:100B9A00EAEF05F020EE04F00350D9260450DA22D9
:100BAA0010EE02F00350E1260450E222DE50E65C29
:100BBA00E650800A096EDE50800A0958D8B0E8EF7C
:100BCA0005F0EAEF05F0F3EF05F020EE02F003502E
:100BDA00D9260450DA22DE2A000EDD221200010E86
:100BEA00586E030E596E050EF3EC06F05E6E5E50FB
:100BFA005A6E5B6AD0EC06F00E0E5F6E5F0E086EE0
:100C0A00000E096E000E0A6E010E0B6EB5EC06F0B0
:100C1A00010E586E030E596E5FC05AF05B6AD0EC33
:100C2A0006F0050E586E030E596E030E016E080E7D
:100C3A00E3EC06F05E6E5E505A6E5B6AD0EC06F02C
:100C4A0000EF00F052C056F053C057F0000E0001FA
:100C5A00616F000E606F45EF06F050C040F051C062
:100C6A0041F0560E426E000E436E54C044F055C019
:100C7A0045F0F6EC02F04050000160274150612334
:100C8A0056C0F6FF57C0F7FF0800F5500009D8A470
:100C9A0051EF06F053EF06F032EF06F060C050F065
:100CAA0061C051F01200000E106E000E0F6E69EF57
:100CBA0006F00EC001F0026A0CC003F00DC004F089
:100CCA00A9EC05F00F4A102A0F500A24D96E1050C9
:100CDA000B20DA6EDF500E6E0E50D8A477EF06F0B6
:100CEA0079EF06F05EEF06F0120014BE87EF06F009
:100CFA00145006E11304D8B085EF06F087EF06F02A
:100D0A0095EF06F013C015F014C016F0151E161E46
:100D1A00154A162A15C013F016C014F099EF06F0FA
:100D2A0013C013F014C014F0120001C003F002C083
:100D3A0004F0A2EF06F0014A022A01C0D9FF02C05C
:100D4A00DAFFDF50D8A4ACEF06F0AEEF06F0A0EF62
:100D5A0006F00350015C016E04500258026E120044
:100D6A000B50D8B4BBEF06F0BDEF06F0C7EF06F0A4
:100D7A0008C004F009C005F00AC006F01BEC07F031
:100D8A00CFEF06F008C004F009C005F00AC006F06B
:100D9A000FEC07F012005A0E5C6E000E5D6E000E2C
:100DAA00506E000E516E58C052F059C053F05C0E8E
:100DBA00546E000E556E27EC06F01200046E01C048
:100DCA0002F004C003F0022AEDEF06F0D8900332D5
:100DDA00022EEBEF06F00350010B1200036E03C064
:100DEA0001F0010E026E012AFDEF06F0D8900236DC
:100DFA00012EFBEF06F00250120000EE60F0280E02
:100E0A00EE6AE806FDE1000EF86E030EF76E0001C9
:100E1A00F4EF05F00650F3EC06F0FF0A076E04C083
:100E2A00D9FF05C0DAFF0750DF1612000650F3ECAF
:100E3A0006F0076E04C0D9FF05C0DAFF0750DF12BB
:040E4A001200120080
:020000040020DA
:08000000FFFFFFFFFFFFFFFF00
:020000040030CA
:0E000000FF251F3FFFBF85FF03C003E0034045
:00000001FF
